:020000040800F2
:10000000D00B002099020008512D00087D2C00081B
:1000100000000000000000000000000000000000E0
:10002000000000000000000000000000992F000800
:100030000000000000000000552D000835300008C9
:10004000AB020008AB020008AB020008AB020008DC
:10005000AB020008AB020008AB020008AB020008CC
:10006000AB020008AB020008AB020008AB020008BC
:10007000AB020008AB020008AB020008F531000833
:100080002D320008AB020008AB020008AB020008EA
:10009000AB020008AB020008AB020008AB0200088C
:1000A000AB020008AB020008AB020008753900087B
:1000B000AB020008C1390008AB020008AB0200081F
:1000C00000F002F800F0BDF80CA030C80838241881
:1000D0002D18A246671EAB4654465D46AC4201D180
:1000E00000F0AFF87E460F3E0FCCB64601263342F5
:1000F00000D0FB1AA246AB4633431847983D000098
:10010000D83D0000103A02D378C878C1FAD8520717
:1001100001D330C830C101D504680C6070470000BD
:100120000023002400250026103A01D378C1FBD813
:10013000520700D330C100D50B60704710B56E294F
:1001400002D100F0DBFA10BD702902D100F015FCDD
:1001500010BD662902D103F0EBFD10BD652902D167
:1001600003F0E6FD10BD672902D103F0E1FD10BDEB
:10017000612902D103F0E4FD10BD03681B0A01D31D
:1001800080231943692902D100F082FA10BD642945
:1001900002D100F07DFA10BD752902D100F078FA85
:1001A00010BD6F2902D100F093FB10BD782902D158
:1001B00000F0D0FB10BDE92902D100F02FFB10BDEB
:1001C000E42902D100F02AFB10BDF52902D100F08C
:1001D00025FB10BDEF2902D100F086FB10BDF829E8
:1001E00002D100F0C5FB10BD0368DB0901D38023F9
:1001F0001943632902D101F0AAF810BD732902D175
:1002000001F0ADF810BDE32902D101F0B7F810BD3F
:10021000F32902D101F0BAF810BD002010BD1FB5BE
:1002200001F014F904000020002103F06BFD401CD4
:1002300060600020002103F04FFDE0601FBD10B59D
:1002400010BD01F0DBF81146FFF7E9FF03F0E2FC17
:1002500001F070FC03B4FFF7F2FF03BC01F0BAFC3D
:1002600070B505460C46164602E00FCC0FC5103E91
:10027000102EFAD2082E02D303CC03C5083E042E5A
:1002800007D301CC01C5361F03E021782970641C17
:100290006D1C761EF9D270BD07488047074800479D
:1002A000FEE7FEE7FEE7FEE7FEE7FEE70448054956
:1002B000054A064B7047000079310008C10000086C
:1002C000D0030020D00B0020D0070020D007002052
:1002D0001CB50C46064B7B4469460090204600F056
:1002E00026FA04460020694600F034FA20461CBD78
:1002F0007B040000034670B502460B439B070FD1F9
:100300000E4CE60100E008C208C91D1B9D433542A2
:10031000F9D0D9B21170521C00290DD01B0AF8E790
:100320000B78491C1370521C002B05D00B78491C0C
:100330001370521C002BF3D170BD000001010101AC
:1003400030B5441C03E00178401C00290DD0810722
:10035000F9D10B4BDD0104C8D11A91432940FAD0E1
:10036000001B0A0603D0C01E30BD001B30BD0A04AE
:1003700001D0801E30BD0902FCD0401E30BD0000FF
:1003800001010101F8B5042A2CD3830712D00B78A0
:10039000491C0370401C521E83070BD00B78491C6C
:1003A0000370401C521E830704D00B78491C037055
:1003B000401C521E8B079B0F05D0C91ADF0020235B
:1003C000DE1B08C90AE0FFF74BFFF8BD1D4608C950
:1003D000FD401C46B4402C4310C0121F042AF5D225
:1003E000F308C91A521EF0D40B78491C0370401C44
:1003F000521EEAD40B78491C0370401C012AE4D435
:1004000009780170F8BD01E004C0091F0429FBD27E
:100410008B0701D50280801CC90700D0027070478D
:1004200000290BD0C30702D00270401C491E0229CC
:1004300004D3830702D50280801C891EE3E70022D3
:10044000EEE70022DFE78178C2780378090412061C
:10045000114342781002184308437047020A08709B
:100460004A70020C8A70020ECA707047002203099B
:100470008B422CD3030A8B4211D300239C464EE0BF
:1004800003460B433CD4002243088B4231D303097B
:100490008B421CD3030A8B4201D394463FE0C3092D
:1004A0008B4201D3CB01C01A524183098B4201D345
:1004B0008B01C01A524143098B4201D34B01C01A30
:1004C000524103098B4201D30B01C01A5241C308A8
:1004D0008B4201D3CB00C01A524183088B4201D317
:1004E0008B00C01A524143088B4201D34B00C01A03
:1004F0005241411A00D201465241104670475DE018
:10050000CA0F00D04942031000D34042534000229A
:100510009C4603098B422DD3030A8B4212D3FC2243
:10052000890112BA030A8B420CD3890192118B42C2
:1005300008D3890192118B4204D389013AD09211D8
:1005400000E08909C3098B4201D3CB01C01A524193
:1005500083098B4201D38B01C01A524143098B425C
:1005600001D34B01C01A524103098B4201D30B0145
:10057000C01A5241C3088B4201D3CB00C01A52416A
:1005800083088B4201D38B00C01A5241D9D2430851
:100590008B4201D34B00C01A5241411A00D201468E
:1005A000634652415B10104601D34042002B00D5F8
:1005B0004942704763465B1000D3404201B50020BA
:1005C000C046C04602BD70477047704770B50446CC
:1005D00085690068C10601D5302600E02026C007E5
:1005E00007D070BD62683046A1689047206A401C01
:1005F00020626D1EF6D570BD70B504468569007821
:10060000C00707D170BD6268A16820209047206AAA
:10061000401C20626D1EF6D570BD09684A0501D5E3
:1006200040B27047C905FCD500B2704709684A0559
:1006300001D5C0B27047C905FCD580B2704770B50E
:100640000C460546012A05D02878800600D5EA69BF
:10065000002302E0012305E05B1C934202D2E05C30
:100660000028F9D1A869E618C01AA861286AC0183C
:1006700028622846FFF7AAFF04E06A682078A96884
:10068000641C9047B442F8D32846FFF7B5FF70BD0D
:10069000F7B5002575291068009914A611D0FFF749
:1006A000BCFF002802DA404211A608E00099096860
:1006B0008A0701D50FA602E0490704D50EA6012539
:1006C00001E0FFF7B3FF009F0024243704E000F0AF
:1006D00081FE30313955641C0028F8D12B46324652
:1006E0002146009800F057FAFEBD0000000000000F
:1006F0002D0000002B00000020000000116802689F
:10070000006A530501D5087009E0D30501D50880BA
:1007100005E0130602D5C21705C100E008600120FC
:100720007047000001694A1C02610878704700B5F3
:100730008FB00291002105910549019379440391FD
:1007400011460490684600F025F90FB000BD000086
:10075000E5FFFFFF0A681070521C0A607047000036
:10076000F7B50446154686B02B487844002703C8E1
:100770003E460090019111E007986A467100415A87
:1007800002A800F007FE411C07D02178890603D596
:10079000E269391891420ED83F18761C20788006FD
:1007A00002D5E069B84206DDAE42E5DB079871008C
:1007B000405A0028E0D1A069C01BA0612046FFF785
:1007C00005FF154878445A3803C80090002001916D
:1007D00016E041006A460798415A02A800F0DAFD87
:1007E0000590401C0AD0002505E0626802A8A168B7
:1007F000405D90476D1C05988542F6D30498401CD7
:10080000B0420490E5DB206AC01920622046FFF761
:10081000F3FE09B0F0BD00002A360000F7B5D21D86
:100820000025D20815A6D200F52905CA11D0002A44
:1008300005DA00214042914111A60A4608E00099DC
:1008400009688B0701D50FA602E0490701D50EA65E
:1008500001251146009F0024243704E000F05EF9D2
:1008600030323A55641C02460A43F7D12B463246D1
:100870002146009800F08FF9FEBD00000000000046
:100880002D0000002B0000002000000070B5044681
:100890000021243408E05507D2086D0F3035655427
:1008A0005D072A43DB08491C15461D43F3D1046844
:1008B000002310A2250708D5A40601D4002904D0DE
:1008C000C46901230CA2641EC46100F064F970BD08
:1008D00010B5044621461068FFF7A8FE0023024623
:1008E0002046FFF7D3FF10BDD21DD108C9000CC9A7
:1008F000CCE700000000000030000000F8B50F4613
:100900000188090502D5224C7C4402E0204C7C443D
:100910000E3405460021243508E016071209360F6B
:10092000A65D6E541E0732431B09491C16461E4322
:10093000F3D1224604780023240705D5702F06D072
:10094000002901D00223113200F025F9F8BD01235E
:100950001032F9E770B504460D4621461068FFF7DE
:1009600065FE0023024629462046FFF7C7FF70BDFB
:10097000D21DD308DB000CCBC0E730B403682024C1
:100980001268234303600823C36130BC0023B5E72A
:1009900094340000F3B50446002081B02062204664
:1009A000E1688847002872D0252802D06268A168D3
:1009B000ABE0594F00267F442046E1688847202855
:1009C000054608DB312D06D278192038007800283A
:1009D00001D00643F0E7B00701D50420864300208C
:1009E000E0610746A0612A2D0AD0284603F00AF9E3
:1009F000002827D0B8000019303D0090856119E02B
:100A00000298BA00121902C8916102902046E1686A
:100A10008847012F054617D1E06900281FDA2020FA
:100A200086431CE000980A218069484300994019D8
:100A3000303888612046E1688847054603F0E2F8CF
:100A40000028EFD1012F0AD02E2D08D12046E168D1
:100A500088470546202006437F1C022FC3DBA06980
:100A6000002803DA4042A06101200643F00701D0CC
:100A7000102086436C2D0BD0682D09D04C2D3CD016
:100A80006A2D38D0742D38D07A2D36D016E040E05B
:100A9000E1682F4620468847B842054609D16C2FA9
:100AA00029D001208002E168064320468847054698
:100AB00004E06C2F1DD0FF2001300643002D28D00C
:100AC00028464138192803D80120C00206432035A2
:100AD000204626602946029A1646FFF72FFB00287B
:100AE00010D001280BD0F61DF008C000083002908D
:100AF00055E74020E1E78020D5E70020D3E7361D09
:100B000002964CE762682846A1689047206A401C1C
:100B100044E7206AFEBD00000E3400000B4670B5AD
:100B2000024689078008084319469D08141AA941FE
:100B300025090807054308092C194841250A01061B
:100B40000D43010A2C194141200C0D0428430D0CC2
:100B500000194D41002140194D41C0086907084363
:100B6000E908840F8D002543840024184D41241981
:100B70006D41121BAB4107E00925ED432C115219C1
:100B800063410024401C61411C460A250026551B78
:100B9000B441F1D270BDFFB504460D4681B024309A
:100BA00000902168880604D51022E06991432160F5
:100BB00000E00120A84201DD471B00E00027049867
:100BC000A1697A191018081AA0612078C00602D409
:100BD0002046FFF7FBFC002608E003986268A16846
:100BE000805D9047206A401C761C206204988642F3
:100BF000F3DB2078C0060AD52046FFF7E7FC06E0C5
:100C00006268A16830209047206A401C2062384604
:100C10007F1E0028F4DC07E000986268A168405D50
:100C20009047206A401C206228466D1E0028F3DC95
:100C30002046FFF7E1FC2078000602D5022005B02F
:100C4000F0BD0120FBE700007047FFB50C461E46D3
:100C50008FB003CA089009914F007D0D00D16D1E21
:100C6000002108460020C0460321099A8905084052
:100C7000002A03DA8200801840080840800D01280D
:100C80000A9002DD0020C0430A90089807430DD067
:100C9000F048F149281848430714189800281DD037
:100CA0007542291E1DDD0A9842421BE01898012852
:100CB00002D00020302104E00020F24305E021545E
:100CC000401CB042FBDB30460022189B002121541F
:100CD0000F998B600A60486013B0F0BDBD1B6D1C9E
:100CE000DFE70A9A002900DA69420BA800F0F6FB58
:100CF0000BAB07CB03AB07C30899099800F05AFC6C
:100D00006B4607C30146D5480918002D00910BDD3D
:100D1000D24903980A9A49424018002303A9039034
:100D2000684600F0B7FE08E003990A9A0023081805
:100D300003A90390684600F057FE6B4607C3000402
:100D4000000C03D00020C043410800E01046189A70
:100D5000002A03D00022009215461EE0751E05D41D
:100D6000FFF7DCFE303262556D1EF9D501220843D3
:100D7000079602D000227F1C04E02078302801D1A1
:100D800000227F1E002A069787D01EE0112D07DA69
:100D9000FFF7C4FE303262556D1C02460A43F5D19E
:100DA000084303D00098002819D00EE00021681EE7
:100DB00005E0235C625C63542254401E491C81425E
:100DC000F7DBA81B401E07950690079A189900208C
:100DD000A0540F98079B069A81600CC07CE71126EF
:100DE0000020189059E7D21DF0B50D460446D108F1
:100DF00093B0C90003C90C900D9102F0B1FE0246F8
:100E00000D98C00F01D02D2007E02068810701D583
:100E10002B2002E04007C00F4001032A0F9001D0B1
:100E2000072A05DB03462946204600F013FB0EE1A6
:100E30002078800601D5E76900E006272846652D61
:100E400004D0662814D0672D69D12DE00020112F21
:100E5000009001DB112300E07B1C0CAA03A910A861
:100E6000FFF7F3FE1199002610987D1C0E9142E0C9
:100E700001203B460CAAC0070B900120009003A95B
:100E800010A8FFF7E2FE119D129810990026002885
:100E90000E9501D1781C0D18781B02D446427D1C9A
:100EA000761EE81B00903AE0012F00DA01270020AF
:100EB000112F009001DD112300E03B460CAA03A98D
:100EC00010A8FFF7C2FE11993D46109800260E911A
:100ED000217809070BD40E99A94200DA0D4603A91F
:100EE000012D04DD4A19203AD27F302A06D0B842BB
:100EF00001DA011D04DA012100910FE06D1EEFE718
:100F0000002802DC86192D1A03E0411CA94200DDED
:100F10000D46801B401C00900120C0070B902078DC
:100F2000000705D40098A84202DB0020C0430090CF
:100F300069460020C8720B98012102AF0337C90728
:100F4000884225D0022010902B2011900B98002869
:100F50000BDA40420B902D20119006E00B9800F028
:100F600039FA30317F1E0B9039701099481E0029D4
:100F70001090F3DC0B980028F0D111987F1E387088
:100F80002088000501D5452000E065207F1E3870CF
:100F900001A8C01BC01D0B900F98002800D0012095
:100FA00041190098C01709180B980818A169081A68
:100FB000401EA0612078C00602D42046FFF706FB41
:100FC0000F98002805D06268A1689047206A401CED
:100FD00020622078C00625D52046FFF7F7FA21E0E9
:100FE000002E07DB0E98B04204DD03A86268805D26
:100FF000A16802E06268A16830209047206A761CF0
:10100000401C20620098401E002800900AD100F089
:101010001DFAC06862680168405CA1689047206A58
:10102000401C206228466D1E0028D9DC07E062685B
:101030003878A1687F1C9047206A401C20620B9979
:10104000481E00290B90F2DC2046FFF7D5FA03205A
:1010500042E6000001FCFFFF104D0000E1DFFFFF52
:10106000D21DF0B504460D46D0088DB0C0004668CC
:1010700007683146384602F073FD0246F00F01D092
:101080002D2307E02068810701D52B2302E04007CC
:10109000C00F43016846002B037001D0012000E01F
:1010A0000020032A0A9001D0072A04DB29462046A3
:1010B00000F0D0F92DE12078800601D40D2500E064
:1010C000E5697000400D0D2D01904BDA300D0021C7
:1010D0000B9008460020C046032189050840002ED9
:1010E00005DA82008018C20F1018401008408015E1
:1010F000012801DD0020C043A9000023182906D3E0
:101100009C460A460123183A1B07D34003E00122FC
:101110001205CA4094460C31202902D33A462039A0
:1011200000E032468A40002802DD002A06D119E09C
:10113000002817D10121C9078A4213D319466346F3
:101140007F185E41002806D10120C007824202D1EB
:10115000084687439E430B98310D814202D0019887
:10116000401C01902088000502D57149794402E0B5
:101170006F49794419396B460A9830221A540A98F3
:101180000A7C401C1A54401C0A900198002801DC7B
:10119000302000E031201872019A0120002A02D08C
:1011A000644BD21804E072003A4302D0614A521CE8
:1011B0000192002D02DC2278120703D56A462E2008
:1011C000507202200022864694460CE0320336011B
:1011D000120F6D1E8B5C02AA13546246521C401CF7
:1011E0009446052A01DA002DF0DC002202AE08E068
:1011F0003B0F3F01CB5C521C6D1E3354401C082A30
:1012000001DA002DF4DC23689A0601D511E0401EB6
:10121000704504DD3218203AD27F302AF7D00028FA
:1012200007DD3218203AD27F2E2A02D11A0700D4C5
:10123000401E002D03DD3E223254401C6D1E497CB1
:1012400031540199401C002906DA2D21471C3154E4
:1012500001984042019003E02B21471C3154019832
:101260007D21C900884206DBFFF70AF93030F055CE
:101270007F1C019101E0642808DB01986421FFF7DD
:10128000FFF83030F0557F1C019101E00A2806DBA1
:1012900001980A21FFF7F4F83030F0557F1C0198CF
:1012A0000A21FFF7EDF83031F1550A98A1697F1C4A
:1012B0007A191018081AA0612078C00602D42046B6
:1012C000FFF784F9216A6E460A980818206204E044
:1012D00062683078A168761C90470A98401E0A9090
:1012E000401CF5D12078C00602D52046FFF76EF9E4
:1012F00002AE09E03078761C3E280DD06268A16805
:101300009047206A401C20627F1EF3D22046FFF7E0
:1013100073F90DB00320F0BD206A4019206203E08C
:101320006268A168302090476D1EEDD3F8E7000099
:101330007C2C000001FCFFFF10B54369002B02D09C
:10134000C046C04601E0FFF77AF9012010BD1278CF
:10135000014624310A7000224A700122ECE711682C
:101360000022D243E8E710B54369002B02D0C04603
:10137000C04601E0FFF7F4F9012010BD12880146D4
:10138000243182840022C2840122ECE71168002209
:10139000D243E8E770B516460C46054600F04EF815
:1013A0000368FF200230C05C012807D0FF2C0ED854
:1013B000185D00280BD001202C7070BDFF33324621
:1013C000214608331868C3182846984770BD002086
:1013D000C04370BD01468008081A02091018020AAD
:1013E0001018020C1018C008820012185200891A36
:1013F00001E0401C0A390A29FBD27047754600F00B
:10140000A1FBAE46050069465346C008C0008546AC
:1014100018B020B5FEF74AFF60BC00274908B64661
:101420000026C0C5C0C5C0C5C0C5C0C5C0C5C0C5F3
:10143000C0C5403D49008D467047000010B500F022
:1014400005F8001D10BD00BFBD2800000048704712
:101450008C030020F8B51F46044601230068DB0218
:10146000032601461840072A05DB002801D017A5EE
:1014700006E017A504E0002801D016A500E016A597
:10148000102081432160A069C01E002FA06101D0FF
:10149000401EA0612046FFF799F8002F09D038467A
:1014A0006268A1689047206A401C2062C01C2062CC
:1014B00006E0206AFAE762682878A1686D1C904708
:1014C000761EF8D22046FFF797F8F8BD4E414E0041
:1014D0006E616E00494E4600696E6600F7B51646AD
:1014E0008AB0334878446C4603467C33C06F5A68F0
:1014F0009B680DC42E487844763003AC0DC80DC4EB
:101500003720C001081837211B30FEF7B9FF054608
:101510000C46803D1B3C02D56442012000E00020C7
:101520000027099010E0E0070CD00C2020497843F8
:10153000794432464C3941186846012300F054FA88
:101540006B4607C364107F1C002CECD1184F7F44FE
:101550002E3F16E0E80712D02001C0190EC80691F0
:10156000089307920068F04201D19819089032461A
:10157000012306A903A800F037FA03AB07C36D10D7
:10158000641C002DE6D10998002806D03246694631
:10159000012303A800F07EFA05E0012332466946E4
:1015A00003A800F021FA0A9B07C30DB0F0BD0000AC
:1015B00018290000034640000A4610B5400D0BD024
:1015C0000121C9070F24A40200191C036408214348
:1015D000540D2143D20207E000210120F2E7D40F8D
:1015E000490021435200401E0029F8DADB0FDB07D7
:1015F000184310BDFFB50D46144685B048685168C4
:1016000002F096FA00910190A868A16802F090FAA1
:1016100002910390A868616802F08AFA029A12188F
:101620008242029201D2012000E00020019A0B18B0
:10163000D2180028019202D08A4202D903E08A42DD
:1016400001D2012000E0002000990818009068688D
:10165000A16802F06DFA029A12188242029201D237
:10166000012000E00020019A0B18D21800280192F6
:1016700002D08A4202D903E08A4201D2012000E06E
:10168000002000990818009028682168400049004F
:10169000400849084018FA49471814E001994000E9
:1016A000C90F08430090019802994000C90F0843F0
:1016B0000190029803994000C90F084302900398D3
:1016C00040007F1E039000980028E7DA0898002861
:1016D00001D0EC4E00E00026B74201DA012000E024
:1016E0000020002804902AD0F71BF806C00E15D061
:1016F000029B2021091A039A8B401A430392029AF3
:10170000019BC2408B401A430292019A009BC24047
:101710008B4000991A430192C14000917B110DD07A
:101720006F460320C11A03D500218200B95003E09F
:101730008A008100BA587A50401EF3D53746039884
:101740000299002800D00120014308980291002846
:1017500008460CD0002800D001200199019A4905C3
:1017600008430121D20AC902D202019200E00121FC
:101770000E9B0122D207012B02D0002B03D013E0D5
:10178000002807D120E0904204D890420CD1019B60
:101790000B4209D0019B5918019105D10099491CB0
:1017A000009101D17F1C009200280DD01021084625
:1017B0000020C0460498002806D00F98002803D0C7
:1017C000082108460020C04628682168019B009A2D
:1017D0004840C10F0598C90739430EC009B0F0BD94
:1017E000FFB587B0099A08980899536892684068CD
:1017F000896896460022039317469446089A126811
:101800005300099A5B081268520052089A1A9E4BBC
:10181000D4180A9A002A01D0352200E0402206920C
:101820000022012315460492DB07059324E0002DD6
:1018300005D175460346039E4D1BB34109D375463A
:101840006646039B491B049D9841059B7519AC4650
:101850005F4163463B4308D0059B049EDD07760845
:101860002E435B080496059301E0521E641EC50FCB
:10187000ED0749184041521C069B9A42D7DB002DC8
:1018800004D17546039A6B1A824101D203200CE001
:10189000039A0B466B404240134303D0014303D0ED
:1018A000012002E0022000E00020614601910021B9
:1018B000009702910A99002905D061464002014330
:1018C000704B019102E08007002302909C4201DAF4
:1018D000012000E0002007003AD01A1BD006C00EFD
:1018E00015D0029D2021019C091AC5408C4025433A
:1018F000029C8C4000D001242543019C0295009D50
:10190000C4408D4000992C430194C1400091541172
:101910001DD06D460221002202290CD10320001B9C
:1019200007E0002804DB8600AE59002E00D001221B
:10193000401C0328F5DB081B02D588002A5004E070
:101940008000285810438A00A850491EE3D51C4641
:101950000A98002802980CD0002800D00120019994
:10196000019A490508430121D20AC902D202019213
:1019700000E00121109B0122D207012B02D0002B95
:1019800003D013E0002807D11FE0904204D8904212
:101990000CD1019B0B4209D0019B5918019105D133
:1019A0000099491C009101D1641C009200280CD0C0
:1019B000102108460020C046002F06D011980028AC
:1019C00003D0082108460020C04608980999019ACA
:1019D000009B006809684840C10F0798C907214368
:1019E00082600AC00BB0F0BD00B585B001930092D3
:1019F0000A460146002302A8FFF7FCFD02A807C81B
:101A000005B000BDFFB50A461F4685B00799019392
:101A100001230091014602A8FFF7ECFD029903980B
:101A2000049ECA0F4900D20700920F224908920271
:101A30008C1A0021002800DB0C46450013486D0875
:101A4000844214D3079A002A04DA441E0026104D5B
:101A5000F64302E004460D460E46102108460020DB
:101A6000C046002F03D0042108460020C0462005B0
:101A7000E90A0843009908436905F20A1143ADE6F3
:101A800002C0FFFF013C0000FF3F0000FF07000015
:101A9000FFFFFF7F00B585B0019300920A46014623
:101AA000002302A8FFF79CFE02A807C8A8E7FFB51D
:101AB0000A461F4685B0079901930123009101460C
:101AC00002A8FFF78DFE02990398049ECA0F4900F1
:101AD000D20700920F22490892028C1A0021002896
:101AE00000DB0C46450011486D08844214D3079A68
:101AF000002A04DA441E00260D4DF64302E0044697
:101B00000D460E46102108460020C046002F03D087
:101B1000042108460020C0462005E90A0843009930
:101B200008436905F20A114358E60000FF07000068
:101B3000FFFFFF7F10B50446C046C0462046FEF7B3
:101B400089FB10BD004870476C030020024670B549
:101B50000A4392072AD11E4DEE0104C808C9541B3E
:101B60009443344017D0D0B2D9B2401A2106014371
:101B700010D190B299B2401A210401430AD1100247
:101B80001902000A090A401A2102014302D1100E6B
:101B9000190E401A70BD9A42DFD010BA19BA8842A5
:101BA00001D9012070BD0020C04370BD02780B78C0
:101BB000401C491C002A09D09A4207D102780B78B0
:101BC000401C491C002A01D09A42EFD0D01A70BDA7
:101BD0000101010101491820ABBEFEE72600020009
:101BE000704730B58C180278401C13071B0F01D1C9
:101BF0000378401C120906D10278401C03E00578E6
:101C0000401C0D70491C5B1EF9D101E00B70491C92
:101C1000521EFBD1A142E6D3002030BD10B50446D0
:101C2000002C25D0134909688A008918124A88189F
:101C300005222146FEF7A6FB0E480068401C0D4910
:101C4000086008460068142801D3002008600B488B
:101C500000680849096888420AD108480068401CA1
:101C60000649086008460068142801D3002008606F
:101C700010BD000038000020420200203400002087
:101C800030B503460C461D19002A01D000F062F859
:101C900003E01878044908705B1CAB42F9D3034891
:101CA0000068006880B230BD003002405000002063
:101CB0000020C043094909680860094807490968C4
:101CC00048610020054909680871401E03490968F8
:101CD00008610120014909688860704750000020B0
:101CE000B71DC10408B5034600BF11484069402133
:101CF00008430F4948610846406940210840009068
:101D000000BF00BF0B480C490860FFF7D1FF98687F
:101D100000F044F8586800F011F8D86800F026F890
:101D2000186900F02FF8186800F03EF808BD0000B0
:101D300000100240003002405000002004490968B1
:101D40008968182291430143014A126891607047E3
:101D500050000020044800688068012108430249BF
:101D60000968886070470000500000200449096835
:101D70008968602291430143014A1268916070476B
:101D8000500000200449096889688022914301437A
:101D9000014A1268916070475000002001490968AB
:101DA0000861704750000020014909684861704788
:101DB0005000002010B5002401242FE0E000001B9B
:101DC00018494018407900280AD00020E100091B7A
:101DD000144A89184871E100091B891888711BE0B1
:101DE000E000001B0F49401880791C2814DAE0003D
:101DF000001B40188079401CE100091B094A891822
:101E00008871E000001B1146401880791C2803DB14
:101E1000214605A000F0A0FF601CC4B20B2CCDDD54
:101E200010BD0000A60200204552525F44455623D3
:101E300025640D0A0000000000B587B0142102A837
:101E4000FEF7FFFA00BF50484069012149040843EA
:101E50004D49486108464069012149040840019004
:101E600000BF00BF00BF48484069490008434649D9
:101E7000486108464069012189040840019000BF7B
:101E800000BF00BF40484069490008433E494861DF
:101E9000084640690121C9040840019000BF00BF05
:101EA00000BF39484069490008433749486108463E
:101EB0004069012109050840019000BF00BF00BF33
:101EC00031484069490008432F4948610846406944
:101ED000012149050840019000BF00BF00BF2A480A
:101EE0004069490008432849486108464069012182
:101EF00089050840019000BF00BF0F2080010290BB
:101F00000120039000200490059002A91F4800F0D2
:101F100081F8002240211D4800F07EF900220121B5
:101F200049021A4800F078F900228021174800F091
:101F300073F90022FF210131144800F06DF90320EC
:101F4000400202900220039000200490032005909C
:101F50000120069002A90920C00600F05BF80320CA
:101F6000800202900220039000200490032005903C
:101F70000120069002A9054800F04CF8142102A89F
:101F8000FEF75FFA07B000BD0010024000080048ED
:101F900010B504460B2C07DAE100091B034A891827
:101FA000481CFEF750FA10BD0020FCE7A6020020F6
:101FB00010B50248FEF747FA10BD0000F3020020FA
:101FC00070B504460025002C1BD00F4800680F494F
:101FD0000968884215D00D480068820080180C4AB4
:101FE000811805222046FEF7CDF908480068401CFC
:101FF0000649086008460068142801D300200860DC
:102000000125284670BD0000380000203400002063
:102010004202002078B50346002200240020E3E0BD
:10202000012696400D6835402C46002C7ED04D6828
:10203000022D02D04D68122D15D1D508AE001D46D7
:102040002035A8595507EE0E0F25B5400646AE437C
:1020500030465607F60E0D69B5402843D508AD0049
:102060001E4620367051186856000325B5400646B6
:10207000AE4330460D79AD07AD0F5600B54028434D
:1020800018604D68012D08D04D68022D05D04D68AF
:10209000112D02D04D68122D18D1986856000325D5
:1020A000B5400646AE4330465600CD68B54028439D
:1020B00098605868012595400646AE433046102684
:1020C0004D6835402D09954028435860D868560022
:1020D0000325B5400646AE43304656008D68B540F0
:1020E0002843D860012636074D683540B5427AD17D
:1020F00000BF404DAD69012635433E4EB5613546C2
:10210000AD69ED07ED0F009500BF00BF3A4D960891
:10211000B600A85995072E0F0F25B5400646AE43C9
:1021200030460925ED06AB4203D100E05BE0002517
:1021300014E0324DAB4201D101250FE0304DAB42EE
:1021400001D102250AE02F4DAB4201D1032505E064
:102150002D4DAB4201D1042500E005259607360F31
:10216000B5402843244D9608B600A851274D28684D
:102170000546A5432846012636044D683540B5423C
:1021800002D1054625432846204D2860686805464B
:10219000A5432846012676044D683540B54202D154
:1021A000054625432846194D6860A8680546A5439D
:1021B0002846012636054D683540B54202D1054610
:1021C00025432846114DA860E8680546A5432846E2
:1021D000012676054D683540B54202D105462543B6
:1021E00028460A4DE860521C0D68D540002D00D0ED
:1021F00016E778BD001002400800014000040048C6
:1022000000080048000C004800100048000401408D
:1022100042694A4042617047002A01D0816100E072
:102220008162704701480068704700003C00002050
:1022300070B50446002C01D1012070BD17482168FB
:102240000860174821680860216860684860216854
:10225000A0688860FFF7E6FF054606E0FFF7E2FFAB
:10226000401B272801D90320E7E72068C068002821
:10227000F4D120680169E068814203D02168E068F8
:10228000086108E00648216808604000216808608D
:102290000020216808600020CFE70000CCCC0000BF
:1022A00055550000014605480A68106040000A685C
:1022B000106000200A68106070470000555500004B
:1022C00010B506480068102108430449086003203F
:1022D00000F006F800F017F8002010BD00200240C2
:1022E00070B5044600F01EF906467D21C900FEF7D0
:1022F000BDF8054600F0A6FC00222146501E00F065
:1023000015F8002070BD70470146002909DB00BFA9
:1023100000BFCB06DB0E01229A40034B1A6000BFC0
:1023200000BF00BF7047000000E100E070B5044648
:102330000D4616462946204601F028FC70BD0000D7
:1023400070B504460D4600266C480068C007C00FF3
:10235000A8420ED2694800684008400028436749F7
:10236000086008460068C007C00FA84201D00120DD
:1023700070BD022120680840022807D160484068EB
:10238000F0218843A16808435D4948602078C00770
:10239000C00F00287ED06068012808D15848006826
:1023A000012149040840002821D10120E0E76068AC
:1023B000022808D152480068012149060840002837
:1023C00015D10120D4E76068032808D14C48406B40
:1023D000012109040840002809D10120C8E7484824
:1023E000006802210840002801D10120C0E74448CC
:1023F0004068800880006168084341494860FFF7F1
:1024000011FF0646606801280FD107E0FFF70AFFB9
:10241000801B3C49884201D90320A9E7384840681D
:102420000C2108400428F1D134E0606802280FD163
:1024300007E0FFF7F7FE801B3249884201D90320ED
:1024400096E72F4840680C2108400828F1D121E088
:10245000606803280FD107E0FFF7E4FE801B2949DD
:10246000884201D9032083E7254840680C210840B1
:102470000C28F1D10EE007E0FFF7D4FE801B2149C4
:10248000884201D9032073E71D4840680C210840A9
:102490000028F1D119480068C007C00FA8420ED922
:1024A0001648006840084000284314490860084660
:1024B0000068C007C00FA84201D0012058E70421DE
:1024C00020680840042808D10D4840680721090207
:1024D0008843E16808430A49486000F029F8084940
:1024E0004968F02211400909074A515CC840074970
:1024F00008600320FFF7F4FE002039E700200240C7
:1025000000100240881300007D3D000854000020A8
:10251000034800680121C904084301490860704765
:10252000001002400148006870470000540000207D
:10253000F0B589B02FA001460EC9C06805AC0EC425
:10254000089030A001460EC9C06801AC0EC40490CA
:102550000024002600270025002000902D48446814
:102560000C20204000283DD0042804D0082805D0A5
:102570000C2836D132E02848009036E00F20800445
:102580002040800C05A90D5C2248C06A0007000F9E
:1025900001A90E5C0320C0032040012109048842E8
:1025A00006D131461C48FDF761FF6843074613E03A
:1025B0000320C00320400321C903884206D13146CD
:1025C0001648FDF753FF6843074605E031461248B9
:1025D000FDF74CFF68430746009706E00F48009060
:1025E00003E000BF0C48009000BF00BF009809B096
:1025F000F0BD000002030405060708090A0B0C0DD4
:102600000E0F10100102030405060708090A0B0C3F
:102610000D0E0F100010024000127A00006CDC0258
:10262000F8B5044600252078C007C00F002872D0F6
:10263000FA4840680C21084004280CD0F74840684C
:102640000840082813D1F548406849030840012193
:10265000090488420BD1F14800680121490408406F
:1026600000286BD06068002868D10120F8BD00BF49
:102670006068012807D1E94800680121090408437E
:10268000E649086031E0606800280ED1E348006840
:10269000012109048843E1490860084600680121D6
:1026A00089048843DD4908601FE0606805280ED171
:1026B000DA480068012189040843D84908600846BF
:1026C0000068012109040843D44908600DE0D3489B
:1026D0000068012109048843D04908600846006861
:1026E000012189048843CD49086000BF6068002843
:1026F00012D0FFF797FD054606E0FFF793FD401B5C
:10270000642801D90320B1E7C448006801214904C5
:1027100008400028F1D011E0FFF784FD054606E0EF
:10272000FFF780FD401B642801D903209EE7BB48CA
:1027300000680121490408400028F1D102212068E5
:102740000840022862D1B54840680C2108400028A2
:102750000CD0B2484068084008281CD1AF484068F7
:10276000490308400121C903884214D1AB480068DD
:1027700002210840002804D0E068012801D001208F
:1027800074E7A6480068F82188432169C900084316
:10279000A24908603AE0E068002820D09F4800681D
:1027A000012108439D490860FFF73CFD054606E00E
:1027B000FFF738FD401B022801D9032056E7974850
:1027C0000068022108400028F2D094480068F821EF
:1027D00088432169C90008439049086016E08F4882
:1027E0000068400840008D490860FFF71BFD054662
:1027F00006E0FFF717FD401B022801D9032035E74B
:1028000086480068022108400028F2D1082120688B
:102810000840082831D1E069002817D07F48406A75
:10282000012108437D494862FFF7FCFC054606E0AC
:10283000FFF7F8FC401B022801D9032016E7774870
:10284000406A022108400028F2D016E07348406A2E
:102850004008400071494862FFF7E4FC054606E085
:10286000FFF7E0FC401B022801D90320FEE66B487D
:10287000406A022108400028F2D104212068084063
:10288000042871D100266548C069890608400028DF
:102890000DD100BF6148C06908436049C86108465E
:1028A000C06909040840009000BF00BF01265C48D1
:1028B0000068FF2101310840002816D158480068FF
:1028C000084357490860FFF7ADFC054606E0FFF7EF
:1028D000A9FC401B642801D90320C7E650480068C2
:1028E000FF21013108400028F1D000BFA068012875
:1028F00006D14A48006A01210843484908622BE092
:10290000A06800280CD14548006A400840004349AF
:1029100008620846006A04218843404908621BE0B7
:10292000A06805280CD13D48006A042108433B49B2
:1029300008620846006A01210843384908620BE032
:102940003648006A40084000344908620846006A78
:10295000042188433149086200BFA068002813D0D1
:10296000FFF760FC054608E029E0FFF75BFC401B31
:102970002C49884201D9032078E62848006A0221C0
:1029800008400028F1D011E0FFF74CFC054607E0B5
:10299000FFF748FC401B2349884201D9032065E624
:1029A0001E48006A022108400028F1D1012E05D1FD
:1029B0001A48C069310788431849C86100BF10210F
:1029C0002068084010285FD1606901282CD1134885
:1029D000406B04210843114948630846406B0121BC
:1029E00008430E494863FFF71DFC054606E0FFF764
:1029F00019FC401B022801D9032037E60748406B29
:102A0000022108400028F2D00448406BF821884396
:102A1000A169C90008430149486335E0001002403C
:102A200000700040881300006069401D00280FD12D
:102A30007A48406B04218843784948630846406BD4
:102A4000F8218843A169C9000843744948631BE021
:102A50007248406B04210843704948630846406B44
:102A6000400840004863FFF7DDFB054606E0FFF73E
:102A7000D9FB401B022801D90320F7E56748406BCA
:102A8000022108400028F2D1202120680840202897
:102A900052D1624840680C2108400C280AD05F4897
:102AA00040680840082811D15C4840684903084044
:102AB00088420BD15948406B012109040840002885
:102AC0003AD0206A012837D00120CFE5206A0028BB
:102AD00019D05248406B0121090408434F4948630B
:102AE000FFF7A0FB054606E0FFF79CFB401B022812
:102AF00001D90320BAE54948406B01210904084087
:102B00000028F1D018E04548406B012109048843B2
:102B100042494863FFF786FB054606E0FFF782FB64
:102B2000401B022801D90320A0E53C48406B01214D
:102B3000090408400028F1D1606A00286CD03748A9
:102B400040680C210840082864D0606A022847D1F8
:102B50003248006801210906884330490860FFF7C0
:102B600061FB054606E0FFF75DFB401B022801D92B
:102B700003207BE529480068012149060840002818
:102B8000F1D100BF2548C06A00090001216B08434C
:102B90002249C862A16AE06A0843204949687B2249
:102BA000D203914308431D49486000BF08460068AE
:102BB00001210906084319490860FFF733FB054660
:102BC00006E0FFF72FFB401B022801D903204DE54B
:102BD000124800680121490608400028F1D01BE096
:102BE0000E4800680121090688430C490860FFF778
:102BF00019FB054606E0FFF715FB401B022801D92B
:102C0000032033E5054800680121490608400028F3
:102C1000F1D101E0012029E5002027E50010024064
:102C2000042806D10649096904221143044A1161A6
:102C300005E00349096904229143014A1161704783
:102C400000E000E070B504462546681E0949884248
:102C500001D901200CE0681E074948610321081FC3
:102C600000F094FF002004498861072008610020DB
:102C700070BD0000FFFFFF0000E000E000BFFEE7C6
:102C80007047000000200249096808607047000092
:102C9000FC02002010B5084808490860022048607E
:102CA0000749064881600749C160FFF7C1FA00285B
:102CB00000D110BD0120FCE700300040FC020020E4
:102CC00071020000FF0F000010B50248FFF7EAFA9A
:102CD00010BD0000FC02002000B591B04B200002A6
:102CE000099000200A900E900C900B900F9010907D
:102CF0000C200D9009A9002000F0FCFCE12040020E
:102D00000190002002900690049003900120C003DF
:102D10000790002008900C20059001A9012000F0E8
:102D2000E9FC11B000BD000010B5002405210648E3
:102D3000FDF785FB012404E0E100091B034A54541C
:102D4000641C0B2CF8DB10BD42020020A602002000
:102D500070477047704700000FB410B5C2B0FF2134
:102D6000013101A8FDF76DFB45A8419001A8419AEA
:102D70004499FDF7ADFA01A90B48FDF7BBFA0A48E3
:102D8000FDF7DEFA044609490C707D23DB00084696
:102D900002780549012000F0AFFD0020419042B0CB
:102DA00010BC08BC04B018475800002028000020C0
:102DB00070B515480078002824D00020124908700A
:102DC000124800781249086008460068442809D073
:102DD0004D2815D1FFF7ECF8054629460DA0FFF761
:102DE000BBFF0EE0094840783038C4B22046FFF7F8
:102DF000CFF805462A4621460CA0FFF7ADFF00E0BC
:102E000000BF00BF70BD0000220000205201002062
:102E1000240000204D4420546F74616C204D657374
:102E200073616765205B25645D0D0A004465762348
:102E3000256420546F74616C204D65737361676500
:102E4000205B25645D0D0A007CB5002400251C482C
:102E50000078002833D000201949087019480078FC
:102E6000002826D118480078811E01221548FEF757
:102E700007FF044614480078801E1249085C0002CF
:102E800011490978491E0F4A515C08430546AC4276
:102E90000BD105220B496846FDF774FA6846FEF728
:102EA000BDFE684600F07AF806E008A0FFF754FF80
:102EB00002E00AA0FFF750FF0020134908707CBD14
:102EC00033000020DE01002032000020496E5661F0
:102ED0006C6964204352430D0A0000004D65737312
:102EE000616765206E6F7420696E74656E646564D9
:102EF00020666F72204D6F6E69746F72696E6744E1
:102F000065766963650D0A00300000207CB50024F9
:102F1000002600BF6846FFF753F8012833D1684602
:102F2000C0784007C00F002808D0012069464978C2
:102F3000CA00511A174A8918487125E06846C078B6
:102F40008007C00F00281FD069464978CA00511A6F
:102F5000104A8918481CFDF776FA451C68464078E7
:102F6000C200101A0B4A8018411C2846FDF776FA59
:102F700008484D30FDF767FA451C06494D31284693
:102F8000FDF76CFA00E003E0601CC4B2052CC1DB65
:102F900000BF7CBDA60200207047000070B504464B
:102FA00000260025002C3FD0002020490870207802
:102FB0006178484020704840607021784840207017
:102FC000E078A17800020843C0B2A070000AE07067
:102FD000E07840084000401CE07000202071012291
:102FE00005212046FEF74CFE0546052221461048E5
:102FF000FDF7C8F905200D49087029120B48027821
:103000000078401C094B1870094881541846027812
:103010000078401C187006488554642303480278E1
:103020000349002000F068FC70BD00003100002062
:10303000CA01002002480068401E0149086070472C
:103040000000002030B591B00220049001200790CC
:103050000020059002200D9081030E91C1040F9174
:103060000021109104A8FFF7DBFA0720009002204E
:10307000019000200290039001216846FFF760F95B
:10308000FFF750FA05467D21C900FDF7EFF9044628
:10309000FFF7D8FD0420FFF7C3FD00220321081F1E
:1030A000FFF744F911B030BDF8B500250024002623
:1030B00000272C4840680C2108400546002D04D00C
:1030C000042D06D0082D3BD107E02748274908608A
:1030D0003AE025482549086036E0224840680F213B
:1030E0008904084004461F4840680321C90308407A
:1030F0000646A00C841C1B48C06A0007000F471C32
:1031000001200004864207D139461748FDF7AEF981
:1031100060431649086012E00320C003864207D1CD
:1031200039461348FDF7A2F960431049086006E0EC
:1031300039460D48FDF79AF960430C49086003E0F1
:1031400009480A49086000BF00BF06484068F021EE
:103150000840000907490D5C04480068E84003493D
:103160000860F8BD0010024000127A0054000020F0
:10317000006CDC027D3D000810B51A480068012192
:10318000084318490860084640681749084015492F
:10319000486008460068154908401249086008461A
:1031A00000680121890488430E4908600846406888
:1031B0003F21090488430B4948600846C06A00095A
:1031C0000001C8620846006B0949084005490863C8
:1031D0000846406B40084000486300208860FFF7C5
:1031E00031FF10BD001002400CB8FF08FFFFF6FED3
:1031F0002CFEFCFF10B50C4800680069C007C00F2A
:1032000000280FD008480068C068C007C00F01211F
:1032100048404840002805D0C81E03490968086195
:1032200000F024F810BD00004000002010B50E484A
:1032300000680069C007C00F002813D00A48006862
:10324000C068C007C00F012148404840002809D08D
:10325000C81E05490968086100F036F800210220FF
:1032600000F012F910BD00004800002010B5114810
:103270000088401C0F49088001200F490870642114
:103280000C480088FDF7FCF8002902D101200B4909
:103290000870084800887D21C900884209DB0020A9
:1032A0000449088040210648FEF7B2FF0120054985
:1032B000087010BD2A0000202C0000202D000020E6
:1032C000000800482E00002010B507480278074982
:1032D0000748FDF757F804480078064908700120B0
:1032E0000549087010BD0000300000206601002074
:1032F000DE010020320000203300002030B51346EC
:1033000000220268284CA04206D00124A407A04253
:1033100002D0264CA04205D170251446AC4322466B
:103320004C682243204CA04212D00124A407A042A2
:103330000ED01E4CA0420BD01D4CA04208D01D4CFC
:10334000A04205D01C4CA04202D01C4CA04206D189
:1033500003252D021446AC432246CC682243802527
:103360001446AC434D692C43224602608C68C4620B
:103370000C6884620C4CA04208D00E4CA04205D0D0
:103380000D4CA04202D00D4CA04201D10C69046347
:1033900001252D031C68AC4203D18468E408E400D5
:1033A00084600124446130BD002C014000040040D1
:1033B000002000400040014000440140004801401E
:1033C000F8B505460E461746012D19D100BF2A480B
:1033D000C069012108432849C8610846C0692840DE
:1033E000009000BF00BF0F20FEF78EFF00221146A5
:1033F0000F20FEF79BFFA807204908600C461BE042
:10340000022D19D100BF1C48C069022108431A4986
:10341000C8610846C06902210840009000BF00BF93
:103420001020FEF771FF002211461020FEF77EFFEC
:103430001348144908600C463A4631462068FFF7A5
:103440005DFF20688068C008C00021688860012096
:10345000C043216808612068C068012108432168D1
:10346000C860307E002805D020680068012108432C
:1034700021680860F8BD00000010024040000020F4
:10348000000400404800002010B50246012A01D186
:10349000114802E0022A00D11048002906D0036832
:1034A0001B68012423430468236013E000BF036802
:1034B0001B6A0B4C2340002B0BD103681B6AA41022
:1034C0002340002B05D103681B685B085B00046880
:1034D000236000BF10BD0000400000204800002015
:1034E0001111000000B58BB00020059004907D21E3
:1034F000C90020480068FCF7B9FF401E0690002074
:1035000007908020099000200890012108A80172EE
:103510000803009000200290C8030190002003904F
:103520006A4604A90120FFF74BFF00200590049094
:10353000FA2110480068FCF799FF401E0690002011
:1035400007908020099000200890002108A80172AF
:10355000012000030090002002900120C003019090
:10356000002003906A4604A90220FFF729FF0BB050
:1035700000BD00005400002010B50248FFF7ECFB2E
:1035800010BD0000503D000870B505461848007891
:10359000642800DB70BD164801780078401C144B8D
:1035A00018701448455418460078012807D10224A1
:1035B000012631462046FFF767FF00BF16E00224D0
:1035C000FF21F5310C480068FCF750FF461E2046ED
:1035D000012803D100218207516204E0022802D1B0
:1035E0000021064A516200BF00BF00BF00BFD1E703
:1035F000300000206601002054000020000400403C
:103600007047000010B522490978002902D001292D
:103610003BD11EE0302801DB392803DD412812DBD5
:103620005A2810DC00211B4A117011460B780978CA
:10363000491C144621701849C85415490978491C79
:10364000134A117004E00021124A1170104A1170DF
:103650001CE00D2810D10F490B780978491C0D4C3E
:1036600021700D49C854002122461170084A11707A
:10367000FF210A4A117007E006490A780978491CB7
:10368000044C21700449885400E000BF00BF10BD05
:1036900020000020210000205201002022000020F4
:1036A00010B5104800781049097888420DD10021E2
:1036B000012000F0F3F800200A4908700A49087058
:1036C0000A49084A127888540AE0064801780078C6
:1036D000401C044A10700548405C0549096808858B
:1036E00010BD000029000020280000205800002004
:1036F0003C030020F8B504460F46002C1BD12A4895
:103700002A4908600E1D0D462948006B800880007C
:10371000401C2749086300BF0846806901218903CE
:1037200008432349886108468069012189030840CC
:10373000009000BF14E0012C12D11E481E49086001
:103740000E1D0D4600BF1A48C069A1040843184960
:10375000C8610846C069A1040840009000BF00BFCE
:103760003946304600F088F8284600F027F8002C4B
:1037700008D11B20FEF7C8FD002203211B20FEF705
:10378000D5FD09E0012C07D11D20FEF7BDFD00226B
:1037900003211D20FEF7CAFD2868006801210843A7
:1037A000296808600120F8BD003801400C030020A2
:1037B00000100240004800403C030020F8B50446D9
:1037C0000025002600272068006840084000216886
:1037D00008602169A068084361690843E1690843FA
:1037E000054620680068224908402843216808608F
:1037F00020684068032109038843E1680843216881
:103800004860216AA06908430546206880680B214A
:10381000090288432843216888600121C903E069BF
:1038200088420BD1FEF784FE4000616849084018C9
:1038300000906168FCF71AFE86B209E0FEF778FE98
:1038400061684908401800906168FCF70FFE86B275
:103850000848304007463007400F07432068C760DC
:10386000206800682021084321680860F8BD000036
:10387000F369FFEFF0FF00000A6802604A684260E7
:103880008A688260CA68C2600A6902614A694261E4
:103890008A698261CA69C26170470000012913D137
:1038A000002808D1124A1268126880231A43104B6C
:1038B0001B681A601BE00F4A1268126880231A43C3
:1038C0000C4B1B681A6012E0002808D1084A1268E5
:1038D000126880239A43064B1B681A6007E0054A6A
:1038E0001268126880239A43024B1B681A60704763
:1038F0000C0300203C030020FFB583B007460D46B3
:103900001E460020029001900090002F01D1174C1C
:1039100000E0174CFEF786FC0190059800901EE031
:103920000098401E009028786D1C216808850AE0E8
:10393000002E05D0FEF776FC0199401AB04202D95C
:103940000120029006E02068C06980210840C0097B
:103950000028EDD000BF0298002800D002E00098B7
:103960000028DDD100BF029807B0F0BD0C03002095
:103970003C03002010B511480068C06920210840B0
:1039800020280BD10D48006800680840002805D0A9
:103990000A480068848C2046FFF7F6FD0748006857
:1039A000C06980210840802807D104480068006869
:1039B0000840002801D0FFF723FE10BD0C030020B3
:1039C00010B511480068C0692021084020280BD19B
:1039D0000D48006800680840002805D00A480068C3
:1039E000848C2046FFF70EFE07480068C0698021DE
:1039F0000840802807D10448006800680840002873
:103A000001D0FFF74DFE10BD3C030020F0B589B09A
:103A10000024202101A8FCF714FD00250026002722
:103A200000BF2F4800680721C901884201D2202623
:103A300000E0002600240BE02A480068007801A975
:103A4000085528480068401C26490860601CC4B21C
:103A5000B442F1D324480068801923490860204803
:103A60000068002800D101273A46314601A8FEF738
:103A700007F905461A480068401C194908601A48A9
:103A80000068072109038842CBD3174800688842A1
:103A900023D3002012490860134908600120C006A2
:103AA0001049086011480068854210D10F4800682D
:103AB000854205D00D48294602680DA0FFF74CF954
:103AC0000A482946026811A0FFF746F905E00748B1
:103AD0002946026806A0FFF73FF909B0F0BD0000D3
:103AE0000C000020080000201000002000800008CA
:103AF000435243204D69734D61746368205B2564B4
:103B00005D203D205B25645D0D0A0000466C6173FD
:103B10006820436865636B73756D20435243205B77
:103B200025645D203D205B25645D0D0A00000000DA
:103B3000F8B5040C8BB2264682B25E431046584359
:103B40000D0C370C360400218019164679416E435E
:103B5000370C36048019264679416E438919F8BD21
:103B60004900CA020243100000D004204A0D01D0CF
:103B700001221043044A490D914201D10221084318
:103B8000012800D105207047FF07000010B500286C
:103B900019DB1A4A03231B02D21883089B00D25850
:103BA0008307DC0EFF23A3409A438B071B0E840779
:103BB000E40EA3401A43114B032424021B1984086A
:103BC000A4001A5118E00E4A03071B0F083B9B087C
:103BD0009B00D2588307DC0EFF23A3409A438B0738
:103BE0001B0E8407E40EA3401A43054B0407240F61
:103BF000083CA408A4001A5110BD000000E100E038
:103C00001CED00E030380A2801D201207047002066
:103C10007047000086B02A48406A012149070840E1
:103C2000012807D12648406A4911084324494862BF
:103C3000FFF728F8FEF744FBFEF7FEF8FFF734FA2B
:103C4000FEF766FCFFF748F8FFF74CFCFFF76CF84F
:103C5000FFF792FC1B4803901B480190082002903C
:103C6000202004908020059001A8FEF73BF8FFF784
:103C7000CDFEFFF70FF822E0FFF726F8FFF7E4F894
:103C8000FFF744F911480078002802D000200F49BE
:103C900008700F480078002806D000200C490870F2
:103CA000FEF7EEFFFEF786F80A480078002804D0F9
:103CB000002008490870FFF74CF8FFF779F8DBE7B8
:103CC00000100240FFFF0000058000002C000020D3
:103CD0002D0000202E00002010B500290AD0087801
:103CE000002807D005487844FDF730FF002801D0B0
:103CF000002010BD0248784410BD0000EE01000015
:103D0000E601000010B500290AD00878002807D085
:103D100005487844FDF71AFF002801D0002010BDA7
:103D20000248784410BD0000DE010000D60100000A
:103D300003B402487844844603BC6047AFD0FFFF19
:103D400003B402487844844603BC604719D3FFFF9C
:103D50004D6F6E69746F72696E6720446576696332
:103D600065204170706C69636174696F6E2056657F
:103D700072202D20312E302E300D0A000000000060
:103D8000000000000001020304060708090000000B
:103D90000001020304000000000000000000000019
:103DA0003031323334353637383941424344454671
:103DB000403058003031323334353637383961626B
:103DC000636465664030780004000008000000006D
:103DD000000000020001000010303132333435366B
:103DE0003738396162636465667870003031323328
:103DF000343536373839414243444546585000003F
:103E000002400000000000A000000000054000008B
:103E1000000000C8000000000C4000000000409CB2
:103E200000000000194000000020BCBE000000009F
:103E300034400000BFC91B8E00000004B5400000E4
:103E4000504BCFD06607E2CF010000006C4100006C
:103E50003E8251AADFEEA73401000000D9420000E3
:103E6000DCB5A0E23A301F97FFFFFFFFB44500002A
:103E7000FD25A0C8E9A3C14FFFFFFFFFFF3F0000E2
:103E80000000008000000000FF3F000000000080F4
:103E9000000000000000000800000008048000008E
:103EA000D80000080000000800000008048000009E
:103EB000D80000080480000800000020580000001E
:103EC000040100085C80000858000020780B000006
:103ED000200100081C00000043000000F8FFFFFF65
:103EE0000C0000000E0000000F0000002E0000007B
:103EF0001001000043000000F8FFFFFF00404040B9
:103F000040404040404041414141414040404040AC
:103F10004040404040404040404040404005020258
:103F20000202020202020202020202020220202017
:103F30002020202020202002020202020202909073
:103F40009090909010101010101010101010101071
:103F500010101010101010100202020202028888C5
:103F600088888888080808080808080808080808D1
:103F700008080808080808080202020240000000B9
:103F80000000000000000000000000000000000031
:103F90000000000000000000000000000000000021
:103FA0000000000000000000000000000000000011
:103FB0000000000000000000000000000000000001
:1080000001940000000000000000000000000008D3
:108010000000000000000000000000080000000058
:108020000000000000000000000000000000000050
:108030000000000000000000000000000000000040
:108040000000000000000000000000000000000030
:0C805000000000000000000000127A0098
:04000005080000C12E
:00000001FF
